{
  "_format": "hh-sol-artifact-1",
  "contractName": "Swap0x",
  "sourceName": "contracts/Swap0x.sol",
  "abi": [
    {
      "inputs": [
        {
          "internalType": "bytes[]",
          "name": "data",
          "type": "bytes[]"
        }
      ],
      "name": "multicall",
      "outputs": [
        {
          "internalType": "bytes[]",
          "name": "results",
          "type": "bytes[]"
        }
      ],
      "stateMutability": "payable",
      "type": "function"
    },
    {
      "inputs": [
        {
          "internalType": "address",
          "name": "sellToken",
          "type": "address"
        },
        {
          "internalType": "address",
          "name": "buyToken",
          "type": "address"
        },
        {
          "internalType": "uint256",
          "name": "sellAmount",
          "type": "uint256"
        },
        {
          "internalType": "address",
          "name": "allowanceTarget",
          "type": "address"
        },
        {
          "internalType": "address payable",
          "name": "swapTarget",
          "type": "address"
        },
        {
          "internalType": "bytes",
          "name": "swapData",
          "type": "bytes"
        }
      ],
      "name": "swap",
      "outputs": [],
      "stateMutability": "payable",
      "type": "function"
    },
    {
      "stateMutability": "payable",
      "type": "receive"
    }
  ],
  "bytecode": "0x608060405234801561001057600080fd5b506111c5806100206000396000f3fe60806040526004361061002d5760003560e01c8063ac9650d814610039578063e962172a1461006957610034565b3661003457005b600080fd5b610053600480360381019061004e919061085a565b610085565b60405161006091906109f9565b60405180910390f35b610083600480360381019061007e9190610b43565b610201565b005b60608282905067ffffffffffffffff8111156100a4576100a3610bf2565b5b6040519080825280602002602001820160405280156100d757816020015b60608152602001906001900390816100c25790505b50905060005b838390508110156101fa576000803073ffffffffffffffffffffffffffffffffffffffff1686868581811061011557610114610c21565b5b90506020028101906101279190610c5f565b604051610135929190610d01565b600060405180830381855af49150503d8060008114610170576040519150601f19603f3d011682016040523d82523d6000602084013e610175565b606091505b50915091508161018482610776565b906101c5576040517f08c379a00000000000000000000000000000000000000000000000000000000081526004016101bc9190610d6f565b60405180910390fd5b50808484815181106101da576101d9610c21565b5b6020026020010181905250505080806101f290610dc0565b9150506100dd565b5092915050565b600073ffffffffffffffffffffffffffffffffffffffff168773ffffffffffffffffffffffffffffffffffffffff16146102bb578673ffffffffffffffffffffffffffffffffffffffff166323b872dd3330886040518463ffffffff1660e01b815260040161027293929190610e26565b6020604051808303816000875af1158015610291573d6000803e3d6000fd5b505050506040513d601f19601f820116820180604052508101906102b59190610e95565b506102fe565b8434146102fd576040517f08c379a00000000000000000000000000000000000000000000000000000000081526004016102f490610f0e565b60405180910390fd5b5b600073ffffffffffffffffffffffffffffffffffffffff168473ffffffffffffffffffffffffffffffffffffffff16141580156103685750600073ffffffffffffffffffffffffffffffffffffffff168773ffffffffffffffffffffffffffffffffffffffff1614155b1561044b578673ffffffffffffffffffffffffffffffffffffffff1663095ea7b3857fffffffffffffffffffffffffffffffffffffffffffffffffffffffffffffffff6040518363ffffffff1660e01b81526004016103c8929190610f2e565b6020604051808303816000875af11580156103e7573d6000803e3d6000fd5b505050506040513d601f19601f8201168201806040525081019061040b9190610e95565b61044a576040517f08c379a000000000000000000000000000000000000000000000000000000000815260040161044190610fa3565b60405180910390fd5b5b60008073ffffffffffffffffffffffffffffffffffffffff168773ffffffffffffffffffffffffffffffffffffffff1614610501578673ffffffffffffffffffffffffffffffffffffffff166370a08231306040518263ffffffff1660e01b81526004016104b99190610fc3565b602060405180830381865afa1580156104d6573d6000803e3d6000fd5b505050506040513d601f19601f820116820180604052508101906104fa9190610ff3565b9050610505565b4790505b6000808573ffffffffffffffffffffffffffffffffffffffff16348686604051610530929190610d01565b60006040518083038185875af1925050503d806000811461056d576040519150601f19603f3d011682016040523d82523d6000602084013e610572565b606091505b50915091508161058182610776565b906105c2576040517f08c379a00000000000000000000000000000000000000000000000000000000081526004016105b99190610d6f565b60405180910390fd5b50600073ffffffffffffffffffffffffffffffffffffffff168973ffffffffffffffffffffffffffffffffffffffff161461070b5760008973ffffffffffffffffffffffffffffffffffffffff166370a08231306040518263ffffffff1660e01b81526004016106329190610fc3565b602060405180830381865afa15801561064f573d6000803e3d6000fd5b505050506040513d601f19601f820116820180604052508101906106739190610ff3565b9050600084826106839190611020565b90508a73ffffffffffffffffffffffffffffffffffffffff1663a9059cbb33836040518363ffffffff1660e01b81526004016106c0929190610f2e565b6020604051808303816000875af11580156106df573d6000803e3d6000fd5b505050506040513d601f19601f820116820180604052508101906107039190610e95565b50505061076a565b60004790506000848261071e9190611020565b90503373ffffffffffffffffffffffffffffffffffffffff166108fc829081150290604051600060405180830381858888f19350505050158015610766573d6000803e3d6000fd5b5050505b50505050505050505050565b60606044825110156107bf576040518060400160405280601d81526020017f5472616e73616374696f6e2072657665727465642073696c656e746c7900000081525090506107dc565b600482019150818060200190518101906107d99190611146565b90505b919050565b6000604051905090565b600080fd5b600080fd5b600080fd5b600080fd5b600080fd5b60008083601f84011261081a576108196107f5565b5b8235905067ffffffffffffffff811115610837576108366107fa565b5b602083019150836020820283011115610853576108526107ff565b5b9250929050565b60008060208385031215610871576108706107eb565b5b600083013567ffffffffffffffff81111561088f5761088e6107f0565b5b61089b85828601610804565b92509250509250929050565b600081519050919050565b600082825260208201905092915050565b6000819050602082019050919050565b600081519050919050565b600082825260208201905092915050565b60005b8381101561090d5780820151818401526020810190506108f2565b60008484015250505050565b6000601f19601f8301169050919050565b6000610935826108d3565b61093f81856108de565b935061094f8185602086016108ef565b61095881610919565b840191505092915050565b600061096f838361092a565b905092915050565b6000602082019050919050565b600061098f826108a7565b61099981856108b2565b9350836020820285016109ab856108c3565b8060005b858110156109e757848403895281516109c88582610963565b94506109d383610977565b925060208a019950506001810190506109af565b50829750879550505050505092915050565b60006020820190508181036000830152610a138184610984565b905092915050565b600073ffffffffffffffffffffffffffffffffffffffff82169050919050565b6000610a4682610a1b565b9050919050565b610a5681610a3b565b8114610a6157600080fd5b50565b600081359050610a7381610a4d565b92915050565b6000819050919050565b610a8c81610a79565b8114610a9757600080fd5b50565b600081359050610aa981610a83565b92915050565b6000610aba82610a1b565b9050919050565b610aca81610aaf565b8114610ad557600080fd5b50565b600081359050610ae781610ac1565b92915050565b60008083601f840112610b0357610b026107f5565b5b8235905067ffffffffffffffff811115610b2057610b1f6107fa565b5b602083019150836001820283011115610b3c57610b3b6107ff565b5b9250929050565b600080600080600080600060c0888a031215610b6257610b616107eb565b5b6000610b708a828b01610a64565b9750506020610b818a828b01610a64565b9650506040610b928a828b01610a9a565b9550506060610ba38a828b01610a64565b9450506080610bb48a828b01610ad8565b93505060a088013567ffffffffffffffff811115610bd557610bd46107f0565b5b610be18a828b01610aed565b925092505092959891949750929550565b7f4e487b7100000000000000000000000000000000000000000000000000000000600052604160045260246000fd5b7f4e487b7100000000000000000000000000000000000000000000000000000000600052603260045260246000fd5b600080fd5b600080fd5b600080fd5b60008083356001602003843603038112610c7c57610c7b610c50565b5b80840192508235915067ffffffffffffffff821115610c9e57610c9d610c55565b5b602083019250600182023603831315610cba57610cb9610c5a565b5b509250929050565b600081905092915050565b82818337600083830152505050565b6000610ce88385610cc2565b9350610cf5838584610ccd565b82840190509392505050565b6000610d0e828486610cdc565b91508190509392505050565b600081519050919050565b600082825260208201905092915050565b6000610d4182610d1a565b610d4b8185610d25565b9350610d5b8185602086016108ef565b610d6481610919565b840191505092915050565b60006020820190508181036000830152610d898184610d36565b905092915050565b7f4e487b7100000000000000000000000000000000000000000000000000000000600052601160045260246000fd5b6000610dcb82610a79565b91507fffffffffffffffffffffffffffffffffffffffffffffffffffffffffffffffff8203610dfd57610dfc610d91565b5b600182019050919050565b610e1181610a3b565b82525050565b610e2081610a79565b82525050565b6000606082019050610e3b6000830186610e08565b610e486020830185610e08565b610e556040830184610e17565b949350505050565b60008115159050919050565b610e7281610e5d565b8114610e7d57600080fd5b50565b600081519050610e8f81610e69565b92915050565b600060208284031215610eab57610eaa6107eb565b5b6000610eb984828501610e80565b91505092915050565b7f5377617030783a204554482076616c756520696e76616c696400000000000000600082015250565b6000610ef8601983610d25565b9150610f0382610ec2565b602082019050919050565b60006020820190508181036000830152610f2781610eeb565b9050919050565b6000604082019050610f436000830185610e08565b610f506020830184610e17565b9392505050565b7f5377617030783a20616c6c6f77616e6365206661696c65640000000000000000600082015250565b6000610f8d601883610d25565b9150610f9882610f57565b602082019050919050565b60006020820190508181036000830152610fbc81610f80565b9050919050565b6000602082019050610fd86000830184610e08565b92915050565b600081519050610fed81610a83565b92915050565b600060208284031215611009576110086107eb565b5b600061101784828501610fde565b91505092915050565b600061102b82610a79565b915061103683610a79565b925082820390508181111561104e5761104d610d91565b5b92915050565b600080fd5b61106282610919565b810181811067ffffffffffffffff8211171561108157611080610bf2565b5b80604052505050565b60006110946107e1565b90506110a08282611059565b919050565b600067ffffffffffffffff8211156110c0576110bf610bf2565b5b6110c982610919565b9050602081019050919050565b60006110e96110e4846110a5565b61108a565b90508281526020810184848401111561110557611104611054565b5b6111108482856108ef565b509392505050565b600082601f83011261112d5761112c6107f5565b5b815161113d8482602086016110d6565b91505092915050565b60006020828403121561115c5761115b6107eb565b5b600082015167ffffffffffffffff81111561117a576111796107f0565b5b61118684828501611118565b9150509291505056fea26469706673582212206eba4461d2846664f00e7494d0d9d1a18fb81c70432118097e8d46d9bda13a9a64736f6c63430008110033",
  "linkReferences": {},
  "deployedLinkReferences": {}
}